:020000007A2A5A
:06000600000000000800EC
:10000C000F3083120313FC004730FD00FD0B0C284E
:0A001C00FC0B0C2800000000080097
:0E002600213083120313FD00FD0B1728080084
:1000340083120313DC1B20288613212886175C1BDC
:100044002528061326280617DC1A2A2886122B28A8
:1000540086165C1A2F2806123028061655183428DE
:10006400061535280611861503208611DC193C284F
:1000740086133D2886175C19412806134228061763
:10008400DC1846288612472886165C184B28061268
:100094004C280616551850280615512806118615A1
:1000A40003208611551C58280620592813200800BF
:1000B400710DF80DF90D7408F8027508031C750F1D
:1000C400F902F00DF10D0F30FC00710DF80DF90D72
:1000D4007408701C7328F8027508031C750FF90264
:1000E4007828F80775080318750FF907F00DF10D56
:1000F400FC0B6728701884287408F807750803181F
:08010400750FF9070000080067
:0E010C008312031350088A004F088200080077
:10011A00083083120313DA00DB015A08F000DA030D
:10012A0070080319B32886189B2898281A30FD00EE
:10013A00FD0B9D280000861CB2285A08F1000130E8
:10014A00F00071080319AD28F00D7010FF3EA728C2
:10015A007008DB04861CB228AF2892285B08F000DE
:02016A0008008B
:10016C008312031355105A08DC001A20551408008A
:10017C0083120313FB01FA01F9018030F800F10C32
:10018C00F00C031CD2287408F90775080318750FB6
:10019C00FA070318FB0A0310F01FDA287408FA0791
:1001AC0075080318750FFB07FB0CFA0CF90CF80C0F
:1001BC00031CC5287B08F3007A08F2007908F100CB
:0601CC007808F0000800B5
:1001D200831203138610831686104130FC00EE3022
:1001E200FD00FD0BF228FC0BF2280000831286149E
:1001F2001330FD00FD0BFB2800000000831686145F
:100202008312861C05290129861808290529861CBE
:100212000B2908298D205608840070088000840A62
:100222008001560884000008F100840A0008F200E8
:100232007108D900D8018D200030F1005808F0046F
:100242005908F10456088400700880007108840A75
:1002520080008D205708840070088000840A800185
:10026200570884000008F100840A0008F2007108AF
:10027200D900D8018D200030F1005808F004590847
:10028200F10457088400700880007108840A800015
:100292008D20570884000008F200840A0008F30049
:1002A200F31F762957088400FF300005F000840A06
:1002B20000087F39F1005708840070088000710837
:1002C200840A8000570884000008F000840A0008AD
:1002D200F100FF30F400FF30F500BE205708840023
:0C02E200700880007108840A8000080089
:1002EE008929803083120313D6009C29C030D60092
:1002FE009C299430D6009C29D430D6009C2980307D
:10030E00D6009C29831203135608013A0319782943
:10031E005608023A03197D295608033A0319802913
:10032E005608043A0319832986295703F000560804
:10033E00F0077008D6007008DC001A205510D9019D
:10034E0059085807840000080319B5295908580799
:10035E0084000008DA00B620D90AA729551408002F
:10036E00831203137408003A031DC6297508003A58
:10037E00031DC629FF30F0007F30F1001F2A8312C3
:10038E000313FD01F901F80171087004031900341B
:10039E0071087506FA00FA1BFD09FB01F51FDC2931
:1003AE00F409F509F40A0319F50AF11FE329F00916
:1003BE00F109F00A0319F10A71087504FA00FA1B23
:1003CE00F8295A207B180B2AFD1F0034F009F10979
:1003DE00F00A0319F10AF809F909F80A0319F90ADA
:1003EE000034F51F072AF11B032A7108F900700863
:1003FE00F800F101F001EB29F101F001F00A0034EF
:10040E00F109F009FB0AE829F80A0319F90A740838
:10041E007802031DEB2975087902031DEB29F901FA
:10042E00F801F00A0319F10AF11FEB290000FF345D
:02043E000800B4
:1004400083160313861106110612861206138613ED
:1004500083128611061186130613861206120620D1
:10046000062006208616061686150320861106200D
:100470008615032086110620861503208611062086
:100480000612861503208611062086150320861184
:1004900086128617861503208611062086130616F7
:1004A0008615032086110612861503208611062064
:1004B0008615032086110616861503208611062050
:1004C000061286150320861186170617861606164D
:0C04D00086150320861106205514080034
:1004DC0086208A110A128000840ACF0A0319D00AD6
:0804EC00F003031D6E2A080055
:1004F40082230730831603139F0083129F01073062
:1005040083169C0020220130DC001A200C30DC0011
:100514001A200130D6000130D7002030D8007721CE
:100524000230D6000130D7002B30D80077211530A7
:10053400FB004B30FC00BE30FD00FD0B9F2AFC0B82
:100544009F2AFB0B9F2A00000130DC001A20513047
:10055400D6005330D700E9200130D6000130D7004F
:100564003630D80077210230D6000130D70045302C
:10057400D80077216430F4000030F5005108F00011
:100584005208F100B72130307007C0000A30F4007F
:100594000030F5005108F0005208F100B7210A308C
:1005A400F4000030F500B7217808F0007908F10074
:1005B40030307007C1000A30F4000030F5005108F3
:1005C400F0005208F100B7217808F0007908F10032
:1005D40030307007C3000130D6000B30D7004030F4
:1005E400D80077210130D6001030D7004B30D80026
:1005F40077216430F4000030F5005308F00054080B
:10060400F100B72130307007C0000A30F400003028
:10061400F5005308F0005408F100B7210A30F40043
:100624000030F500B7217808F0007908F100303087
:100634007007C1000A30F4000030F5005308F000E0
:100644005408F100B7217808F0007908F10030303F
:100654007007C3000230D6000B30D7004030D800FA
:100664007721DF30DA00B6200230D6001030D70010
:100674004D30D80077210B30FB002630FC005D3074
:10068400FD00FD0B432BFC0B432BFB0B432B00000A
:060694000000A92A4C2B16
:10070400203084002F3083120313F0005230CF00C6
:080714000330D0006E22080042
:1006A40044344834543432343234203457344934A2
:0606B40054344834003408
:1006BA005034493443343134363446343834373498
:0606CA0037344134003416
:1006D000483455344D34493444344934543459340D
:0406E0003A34003474
:0A06E400303430342E34303400344A
:0C06EE00543445344D3450343A34003458
:0406FA00253400346F
:0406FE00433400344D
:02400E004A2F37
:00000001FF
