:02000000AB282B
:10000600710DF80DF90D7408F8027508031C750FCB
:10001600F902F00DF10D0F30FC00710DF80DF90D20
:100026007408701C1C28F8027508031C750FF90269
:100036002128F80775080318750FF907F00DF10D5B
:10004600FC0B102870182D287408F807750803187B
:08005600750FF9070000080016
:0E005E00831203132B088A002A088200080070
:10006C002F208A110A128000840AAA0A0319AB0AEB
:08007C00F003031D3628080003
:10008400831203137408003A031D51287508003ABB
:10009400031D5128FF30F0007F30F100AA2883129D
:1000A4000313FD01F901F801710870040319003408
:1000B40071087506FA00FA1BFD09FB01F51F672894
:1000C400F409F509F40A0319F50AF11F6E28F00979
:1000D400F109F00A0319F10A71087504FA00FA1B10
:1000E400832803207B189628FD1F0034F009F109AA
:1000F400F00A0319F10AF809F909F80A0319F90AC7
:100104000034F51F9228F11B8E287108F90070083D
:10011400F800F101F0017628F101F001F00A003451
:10012400F109F009FB0A7328F80A0319F90A74089B
:100134007802031D762875087902031D7628F901D3
:10014400F801F00A0319F10AF11F76280000FF34C0
:020154000800A1
:10015600C03083120313A000F930A100A430A2001E
:10016600B030A3009930A4009230A5008230A600DA
:10017600F830A7008030A8009030A900B201B30182
:10018600B401B501B601B701B801B90183168601FC
:10019600831286018316870183128701FF30831637
:1001A600880083128801081E6129871207138713A6
:1001B600B201B301AC01AD01AE01AF010130B8002F
:1001C6000030B900081FF82880303306F000803070
:1001D6007002031DF028643032020318F528B20AB3
:1001E6000319B30AAE0A0319AF0A881F0D29803016
:1001F6003306F00080307002031D032900303202FE
:10020600031C09290130B202031CB3030130AE02FC
:10021600031CAF030A30F4000030F5003208F0008A
:100226003308F10042207008B4007108B5000A30A6
:10023600F4000030F5003208F0003308F1004220E7
:100246007808F0007908F1007008B6007108B70068
:10025600AC01AD0180302D06F00080307002031D28
:1002660036290A302C0203185C2907143408203E6C
:100276008400000886004130FC00EE30FD00FD0BD6
:100286004229FC0B42290000071087143608203E3D
:100296008400000886004130FC00EE30FD00FD0BB6
:1002A6005229FC0B522900008710AC0A0319AD0A2B
:1002B6002D29081A5F296029E5285E2A081A5E2A70
:1002C6008716B401B501B601B701AC01AD018030A6
:1002D6002D06F00080307002031D73290A302C02AF
:1002E6000318992907143408203E84000008860064
:1002F6004130FC00EE30FD00FD0B7F29FC0B7F2911
:100306000000071087143608203E84000008860087
:100316004130FC00EE30FD00FD0B8F29FC0B8F29D0
:1003260000008710AC0A0319AD0A6A29B201B301AD
:10033600AC01AD01B001B101081FB229803033060E
:10034600F00080307002031DAA29643032020318BF
:10035600AF29B20A0319B30AB00A0319B10A881FF2
:10036600C72980303306F00080307002031DBD2996
:1003760000303202031CC3290130B202031CB3034E
:100386000130B002031CB1030A30F4000030F5005E
:100396003208F0003308F10042207008B4007108FA
:1003A600B5000A30F4000030F5003208F0003308DA
:1003B600F10042207808F0007908F1007008B600D4
:1003C6007108B700AC01AD0180302D06F000803019
:1003D6007002031DF0290A302C020318162A07148E
:1003E6003408203E8400000886004130FC00EE30D0
:1003F600FD00FD0BFC29FC0BFC29000007108714EF
:100406003608203E8400000886004130FC00EE30AD
:10041600FD00FD0B0C2AFC0B0C2A00008710AC0A11
:100426000319AD0AE7292F083106031D1C2A3008D7
:100436002E06031D5A2A00303906031D242A0130D0
:100446003806031D5A2A871207173330FB00BB30C4
:10045600FC00DF30FD00FD0B2E2AFC0B2E2AFB0BC9
:100466002E2A00000000071387173330FB00BB302D
:10047600FC00DF30FD00FD0B3E2AFC0B3E2AFB0B89
:100486003E2A00000000871387163330FB00BB307E
:10049600FC00DF30FD00FD0B4E2AFC0B4E2AFB0B49
:1004A6004E2A00000000081E592A5A2A262A081E2B
:0A04B6005D2A5E2A9F29D6285F2ADE
:02400E004A2F37
:00000001FF
