:02000000102AC4
:0C000600000000000000000000000800E6
:10001200243083120313FC00B530FD00FD0B0F28C2
:0A002200FC0B0F280000000008008E
:0E002C00533083120313FD00FD0B1A28080049
:10003A0083160313B71B24288312861226288312D9
:10004A0086168316371B2C28831206122E28831233
:10005A0006168316B71A3428831286113628831295
:10006A0086158316371A3C28831206113E288312F6
:10007A000615831629184428831206144628831263
:10008A0006108614032086108316B7194F28831288
:10009A008612512883128616831637195728831217
:1000AA0006125928831206168316B7185F28831278
:1000BA0086116128831286158316371867288312DA
:1000CA000611692883120615831629186F288312C8
:1000DA0006147128831206108614032086108316CC
:0C00EA00291C792809207A28162008001B
:0E00F6008316031324088A00230882000800E2
:100104008316031329103608B7001D2083162914FB
:020114000800E1
:1001160083120313F301083073020318C428081866
:10012600952892283130FD00FD0B9728000000002D
:100136000818AF287308073CF0007008F10001307A
:10014600F00071080319AB28F00D7010FF3EA528CA
:10015600F0097008F205C2287308073CF000700821
:10016600F1000130F00071080319BD28F00D701080
:10017600FF3EB7287008F204081CC228BF28F30AFD
:080186008E287208F000080049
:10018E00831603130810831208107530FC00E1303B
:10019E00FD00FD0BD028FC0BD02808143130FD00DB
:0E01AE00FD0BD728000000008316081408007F
:1001BC0083120313F801F9011030FC00710DF80DD6
:1001CC00F90D7408F8027508031C750FF902031871
:1001DC00F6287408F80775080318750FF90703104B
:0A01EC00F00DF10DFC0BE4280800F3
:1001F60083160313A2014230FD00FD0B0029000007
:100206008312081814298530FD00FD0B0829081CE7
:100216000F2901308316A2004230FD00FD0B112983
:0402260000000800CC
:10022A007B208A110A128000840AA30A0319A40AED
:08023A00F003031D1529080063
:100242003329803083160313B2004629C030B2002E
:1002520046299430B2004629D430B2004629803073
:10026200B2004629831603133208013A03192229E0
:100272003208023A031927293208033A03192A29B4
:100282003208043A03192D2930293303F0003208C9
:10029200F0077008B2007008B7001D2083162910FD
:1002A200B5013508340784000008031960293508B0
:1002B200340784000008B6008220B50A52292914A6
:0202C200080032
:1002C4007429803083160313B2008729C030B2002A
:1002D40087299430B2008729D430B200872980302E
:1002E400B2008729831603133208013A03196329DC
:1002F4003208023A031968293208033A03196B29B0
:100304003208043A03196E2971293303F0003208C4
:10031400F0077008B20029147008B7001D20831676
:0E03240029103408B7001D2083162914080084
:100332008316031386100610061186110612861202
:1003420083128610061086120612861106110920E3
:100352000920092086150615861403208610092017
:100362008614032086100920861403208610092093
:100372000611861403208610092086140320861095
:100382008611861686140320861009208612061509
:100392008614032086100611861403208610092075
:1003A2008614032086100615861403208610092061
:1003B2000611861403208610861606168615061563
:0E03C2008614032086100920831629140800D3
:1003D000831603138817870183128701881F0B2A4E
:1003E000871487170330FB008A30FC005530FD006E
:1003F000FD0BF829FC0BF829FB0BF8290000000085
:1004000087134130FC00EE30FD00FD0B052AFC0B8C
:10041000052A00000F2A881B0F2A8710871308005F
:10042000622483160313870199210C30B7001D2025
:1004300001308316B7001D20E821C720FB2083165A
:1004400003132208013A031DF42B8B207008EC00E3
:100450008B207008EB008B207008EA008B2070085E
:10046000EF008B2070088316A000A10183126B0897
:100470006C07F000F1010318F10A6A08F00703188D
:10048000F10A6F08F0070318F10AFF307005F20057
:100490007108F3000030F305831621087306031D6D
:1004A000532A72082006031DE32B83126A08ED000D
:1004B000EE016D08EE00ED016F08ED040030EE0472
:1004C0006C088316AC00AD010130B7001D20831607
:1004D0002C08AD00AC0183126B088316AC0400300D
:1004E000AD040130B2000630B3005C30B40021210D
:1004F0000230B2000230B3004C30B400212183122C
:100500006E08803C031D862A6D08003C0318952A5E
:1005100001308316B2000B30B3006830B4002121E3
:10052000FF308312ED057F30EE056430F4000030BB
:10053000F5006D08F0006E08F100DE200A30F400CE
:100540000030F500DE207808F0007908F100303046
:10055000F0070318F10A70088316B0007108B100A3
:100560000130B2000C30B3007008B40062210A30D0
:10057000F4000030F50083126D08F0006E08F10001
:10058000DE200A30F4000030F500DE207808F000AC
:100590007908F1003030F0070318F10A700883166B
:1005A000AE007108AF000130B2000D30B30070082A
:1005B000B40062210A30F4000030F50083126D08A7
:1005C000F0006E08F100DE207808F0007908F100F4
:1005D0003030F0070318F10A70088316AA0071087A
:1005E000AB000130B2000F30B3007008B4006221DC
:1005F0006430F4000030F5002C08F0002D08F10004
:10060000DE200A30F4000030F500DE207808F0002B
:100610007908F1003030F0070318F10A70088316EA
:10062000A7007108A8000230B2000C30B3007008B7
:10063000B40062210A30F4000030F5002C08F0000C
:100640002D08F100DE200A30F4000030F500DE2035
:100650007808F0007908F1003030F0070318F10A4B
:1006600070088316A5007108A6000230B2000D3094
:10067000B3007008B40062210230B2000F30B30042
:100680000A30F4000030F5002C08F0002D08F100CD
:10069000DE207808F0007908F1007008303E8316FB
:1006A000B400622100303106031D582B3330300670
:1006B0000130031D0030F10000302F06031D622BB6
:1006C00037302E060130031D0030F0007008F105B0
:1006D0002B08003C031D6E2B2A08353C0130031803
:1006E0000030F0007108F0050319852B0D30FB0078
:1006F000AF30FC00B630FD00FD0B7C2BFC0B7C2BDF
:10070000FB0B7C2B00008312071000308316310294
:10071000031D8C2B34303002013003180030F100FF
:1007200000302F02031D962B38302E0201300318A3
:100730000030F0007008F10500302B02031DA22BE1
:1007400034302A02013003180030F0007108F0053F
:100750000319AC2B8312071483162808003C031DD1
:10076000B32B2708353C013003180030F100260870
:10077000003C031DBD2B2508343C0130031800301C
:10078000F0007108F0050319C72B831287100030A1
:1007900083162802031DCE2B3630270201300318A2
:1007A0000030F10000302602031DD82B3130250225
:1007B000013003180030F0007108F0050319E22B36
:1007C00083128714F32B0C308316B7001D200130E1
:1007D0008316B7001D2001308316B2000130B3002C
:1007E0002030B4002121032C83160130B2000330E5
:1007F000B3004030B40021210230B2000130B30018
:100800003030B40021211A30FB005E30FC006E3025
:10081000FD00FD0B092CFC0B092CFB0B092C000027
:040820001C2A112C51
:1008C400203084004A3083120313F000173083165B
:0A08D400A3000430A4001521080061
:10082E0043346834653463346B3420347334753434
:10083E006D3420346534723472346F347234003453
:10084E00663472346F346D342034743468346534E5
:10085E002034733465346E3473346F347234003430
:10086E004E346F34203472346534733470346F34D4
:08087E006E347334653400345C
:10088600483475346D346934643469347434793475
:100896003A342034203420342E34203425340034A5
:1008A600543465346D3470343A3420342034203472
:0808B6002E34203443340034D9
:0408BE002D340034A1
:02400E004A2F37
:00000001FF
